{
  "_format": "hh3-artifact-1",
  "contractName": "Todo",
  "sourceName": "contracts/Todo.sol",
  "abi": [
    {
      "inputs": [
        {
          "internalType": "string",
          "name": "_title",
          "type": "string"
        }
      ],
      "name": "createTodo",
      "outputs": [],
      "stateMutability": "nonpayable",
      "type": "function"
    },
    {
      "inputs": [
        {
          "internalType": "uint256",
          "name": "_id",
          "type": "uint256"
        }
      ],
      "name": "deleteTodo",
      "outputs": [],
      "stateMutability": "nonpayable",
      "type": "function"
    },
    {
      "inputs": [],
      "name": "getAllTodos",
      "outputs": [
        {
          "components": [
            {
              "internalType": "uint8",
              "name": "id",
              "type": "uint8"
            },
            {
              "internalType": "string",
              "name": "title",
              "type": "string"
            },
            {
              "internalType": "bool",
              "name": "completed",
              "type": "bool"
            },
            {
              "internalType": "uint256",
              "name": "timeCompleted",
              "type": "uint256"
            }
          ],
          "internalType": "struct Todo.TodoFields[]",
          "name": "",
          "type": "tuple[]"
        }
      ],
      "stateMutability": "view",
      "type": "function"
    },
    {
      "inputs": [
        {
          "internalType": "uint8",
          "name": "_id",
          "type": "uint8"
        }
      ],
      "name": "markCompleted",
      "outputs": [],
      "stateMutability": "nonpayable",
      "type": "function"
    },
    {
      "inputs": [
        {
          "internalType": "uint8",
          "name": "_id",
          "type": "uint8"
        }
      ],
      "name": "markUnCompleted",
      "outputs": [],
      "stateMutability": "nonpayable",
      "type": "function"
    },
    {
      "inputs": [
        {
          "internalType": "uint256",
          "name": "_id",
          "type": "uint256"
        },
        {
          "internalType": "string",
          "name": "_title",
          "type": "string"
        }
      ],
      "name": "updateTodo",
      "outputs": [],
      "stateMutability": "nonpayable",
      "type": "function"
    }
  ],
  "bytecode": "0x6080604052348015600e575f5ffd5b50610cb38061001c5f395ff3fe608060405234801561000f575f5ffd5b5060043610610060575f3560e01c806312d298d2146100645780636e3c6738146100795780636edddfbd1461008c578063ce2bd5d51461009f578063d534ee88146100bd578063e34f1221146100d0575b5f5ffd5b6100776100723660046107c8565b6100e3565b005b6100776100873660046107ef565b6101da565b61007761009a3660046107c8565b610345565b6100a7610417565b6040516100b49190610806565b60405180910390f35b6100776100cb366004610956565b610532565b6100776100de36600461099a565b610691565b5f5b5f548110156101d6578160ff165f8281548110610104576101046109d4565b5f91825260209091206004909102015460ff161461013d5760405162461bcd60e51b8152600401610134906109e8565b60405180910390fd5b8160ff165f8281548110610153576101536109d4565b5f91825260209091206004909102015460ff16036101ce5760015f828154811061017f5761017f6109d4565b905f5260205f2090600402016002015f6101000a81548160ff021916908315150217905550425f82815481106101b7576101b76109d4565b905f5260205f209060040201600301819055505050565b6001016100e5565b5050565b5f5b5f548110156101d657815f82815481106101f8576101f86109d4565b5f91825260209091206004909102015460ff16146102285760405162461bcd60e51b8152600401610134906109e8565b815f828154811061023b5761023b6109d4565b5f91825260209091206004909102015460ff160361033d575f805461026290600190610a29565b81548110610272576102726109d4565b905f5260205f2090600402015f8281548110610290576102906109d4565b5f91825260209091208254600490920201805460ff191660ff9092169190911781556001808201906102c490840182610ac5565b50600282810154908201805460ff191660ff90921615159190911790556003918201549101555f8054806102fa576102fa610b9d565b5f8281526020812060045f1990930192830201805460ff19168155906103236001830182610776565b5060028101805460ff191690555f60039091015590555050565b6001016101dc565b5f5b5f548110156101d6578160ff165f8281548110610366576103666109d4565b5f91825260209091206004909102015460ff16146103965760405162461bcd60e51b8152600401610134906109e8565b8160ff165f82815481106103ac576103ac6109d4565b5f91825260209091206004909102015460ff160361040f575f5f82815481106103d7576103d76109d4565b905f5260205f2090600402016002015f6101000a81548160ff0219169083151502179055505f5f82815481106101b7576101b76109d4565b600101610347565b60605f805480602002602001604051908101604052809291908181526020015f905b82821015610529575f848152602090819020604080516080810190915260048502909101805460ff168252600181018054929391929184019161047b90610a42565b80601f01602080910402602001604051908101604052809291908181526020018280546104a790610a42565b80156104f25780601f106104c9576101008083540402835291602001916104f2565b820191905f5260205f20905b8154815290600101906020018083116104d557829003601f168201915b5050509183525050600282015460ff1615156020808301919091526003909201546040909101529082526001929092019101610439565b50505050905090565b5f5b5f5481101561068c57825f8281548110610550576105506109d4565b5f91825260209091206004909102015460ff160361068457825f828154811061057b5761057b6109d4565b5f91825260209091206004909102015460ff16146105ab5760405162461bcd60e51b8152600401610134906109e8565b5f81815481106105bd576105bd6109d4565b5f91825260209091206002600490920201015460ff161561062a5760405162461bcd60e51b815260206004820152602160248201527f546f646f20636f6d706c657465642c2063616e2774207570646174652069742e6044820152601760f91b6064820152608401610134565b815f828154811061063d5761063d6109d4565b905f5260205f20906004020160010190816106589190610bb1565b505f5f828154811061066c5761066c6109d4565b905f5260205f20906004020160030181905550505050565b600101610534565b505050565b600180546106a49160ff90911690610c64565b6001805460ff1990811660ff938416908117835560408051608081018252918252602082018681525f918301829052606083018290528154948501825590805281517f290decd9548b62a8d60345a988386fc84ba6bc95484008f6362f93160ef3e563600490950294850180549094169516949094178255925183927f290decd9548b62a8d60345a988386fc84ba6bc95484008f6362f93160ef3e564019061074d9082610bb1565b50604082015160028201805460ff19169115159190911790556060909101516003909101555050565b50805461078290610a42565b5f825580601f10610791575050565b601f0160209004905f5260205f20908101906107ad91906107b0565b50565b5b808211156107c4575f81556001016107b1565b5090565b5f602082840312156107d8575f5ffd5b813560ff811681146107e8575f5ffd5b9392505050565b5f602082840312156107ff575f5ffd5b5035919050565b5f602082016020835280845180835260408501915060408160051b8601019250602086015f5b828110156108ab57603f19878603018452815160ff81511686526020810151608060208801528051806080890152806020830160a08a015e5f60a0828a0101526040830151151560408901526060830151606089015260a0601f19601f830116890101975050505060208201915060208401935060018101905061082c565b50929695505050505050565b634e487b7160e01b5f52604160045260245ffd5b5f82601f8301126108da575f5ffd5b813567ffffffffffffffff8111156108f4576108f46108b7565b604051601f8201601f19908116603f0116810167ffffffffffffffff81118282101715610923576109236108b7565b60405281815283820160200185101561093a575f5ffd5b816020850160208301375f918101602001919091529392505050565b5f5f60408385031215610967575f5ffd5b82359150602083013567ffffffffffffffff811115610984575f5ffd5b610990858286016108cb565b9150509250929050565b5f602082840312156109aa575f5ffd5b813567ffffffffffffffff8111156109c0575f5ffd5b6109cc848285016108cb565b949350505050565b634e487b7160e01b5f52603260045260245ffd5b602080825260139082015272151bd91bc8191bd95cc81b9bdd08195e1a5cdd606a1b604082015260600190565b634e487b7160e01b5f52601160045260245ffd5b81810381811115610a3c57610a3c610a15565b92915050565b600181811c90821680610a5657607f821691505b602082108103610a7457634e487b7160e01b5f52602260045260245ffd5b50919050565b601f82111561068c57805f5260205f20601f840160051c81016020851015610a9f5750805b601f840160051c820191505b81811015610abe575f8155600101610aab565b5050505050565b818103610ad0575050565b610ada8254610a42565b67ffffffffffffffff811115610af257610af26108b7565b610b0681610b008454610a42565b84610a7a565b5f601f821160018114610b3a575f8315610b205750848201545b600184901b5f19600386901b1c198216175b855550610abe565b5f8581526020808220868352908220601f198616925b83811015610b705782860154825560019586019590910190602001610b50565b5085831015610b8d57818501545f19600388901b60f8161c191681555b5050505050600190811b01905550565b634e487b7160e01b5f52603160045260245ffd5b815167ffffffffffffffff811115610bcb57610bcb6108b7565b610bd981610b008454610a42565b6020601f821160018114610c09575f8315610b20575081850151600184901b5f19600386901b1c19821617610b32565b5f84815260208120601f198516915b82811015610c385787850151825560209485019460019092019101610c18565b5084821015610c5557868401515f19600387901b60f8161c191681555b50505050600190811b01905550565b60ff8181168382160190811115610a3c57610a3c610a1556fea264697066735822122072bba58a7cc6d17dea708feaeec22f3338f7288d68c6c816a52891fbd6bbd20a64736f6c634300081c0033",
  "linkReferences": {},
  "deployedLinkReferences": {},
  "immutableReferences": {},
  "inputSourceName": "project/contracts/Todo.sol",
  "buildInfoId": "solc-0_8_28-43d050fb5c0dca34e1c4b9fa6e9489f25b41abaa"
}