{
  "_format": "hh3-artifact-1",
  "contractName": "FaucetToken",
  "sourceName": "contracts/FaucetToken.sol",
  "abi": [
    {
      "inputs": [],
      "stateMutability": "nonpayable",
      "type": "constructor"
    },
    {
      "inputs": [],
      "name": "INSUFFICIENT_BALANCE",
      "type": "error"
    },
    {
      "inputs": [],
      "name": "MAX_SUPPLY_EXCEEDED",
      "type": "error"
    },
    {
      "inputs": [],
      "name": "NOT_ALLOWED",
      "type": "error"
    },
    {
      "inputs": [],
      "name": "NOT_OWNER",
      "type": "error"
    },
    {
      "inputs": [],
      "name": "WAIT_FOR_24_HOURS",
      "type": "error"
    },
    {
      "anonymous": false,
      "inputs": [
        {
          "indexed": true,
          "internalType": "address",
          "name": "owner",
          "type": "address"
        },
        {
          "indexed": true,
          "internalType": "address",
          "name": "spender",
          "type": "address"
        },
        {
          "indexed": false,
          "internalType": "uint256",
          "name": "value",
          "type": "uint256"
        }
      ],
      "name": "Approval",
      "type": "event"
    },
    {
      "anonymous": false,
      "inputs": [
        {
          "indexed": true,
          "internalType": "address",
          "name": "from",
          "type": "address"
        },
        {
          "indexed": true,
          "internalType": "address",
          "name": "to",
          "type": "address"
        },
        {
          "indexed": false,
          "internalType": "uint256",
          "name": "value",
          "type": "uint256"
        }
      ],
      "name": "Transfer",
      "type": "event"
    },
    {
      "inputs": [],
      "name": "MAX_SUPPLY",
      "outputs": [
        {
          "internalType": "uint256",
          "name": "",
          "type": "uint256"
        }
      ],
      "stateMutability": "view",
      "type": "function"
    },
    {
      "inputs": [],
      "name": "Symbol",
      "outputs": [
        {
          "internalType": "string",
          "name": "",
          "type": "string"
        }
      ],
      "stateMutability": "view",
      "type": "function"
    },
    {
      "inputs": [],
      "name": "TokenName",
      "outputs": [
        {
          "internalType": "string",
          "name": "",
          "type": "string"
        }
      ],
      "stateMutability": "view",
      "type": "function"
    },
    {
      "inputs": [],
      "name": "TotalSupply",
      "outputs": [
        {
          "internalType": "uint256",
          "name": "",
          "type": "uint256"
        }
      ],
      "stateMutability": "view",
      "type": "function"
    },
    {
      "inputs": [
        {
          "internalType": "address",
          "name": "spender",
          "type": "address"
        },
        {
          "internalType": "uint256",
          "name": "_amount",
          "type": "uint256"
        }
      ],
      "name": "approve",
      "outputs": [
        {
          "internalType": "bool",
          "name": "",
          "type": "bool"
        }
      ],
      "stateMutability": "nonpayable",
      "type": "function"
    },
    {
      "inputs": [
        {
          "internalType": "address",
          "name": "",
          "type": "address"
        }
      ],
      "name": "balanceOf",
      "outputs": [
        {
          "internalType": "uint256",
          "name": "",
          "type": "uint256"
        }
      ],
      "stateMutability": "view",
      "type": "function"
    },
    {
      "inputs": [],
      "name": "decimals",
      "outputs": [
        {
          "internalType": "uint256",
          "name": "",
          "type": "uint256"
        }
      ],
      "stateMutability": "view",
      "type": "function"
    },
    {
      "inputs": [],
      "name": "faucetAmount",
      "outputs": [
        {
          "internalType": "uint256",
          "name": "",
          "type": "uint256"
        }
      ],
      "stateMutability": "view",
      "type": "function"
    },
    {
      "inputs": [
        {
          "internalType": "address",
          "name": "",
          "type": "address"
        }
      ],
      "name": "lastRequestTime",
      "outputs": [
        {
          "internalType": "uint256",
          "name": "",
          "type": "uint256"
        }
      ],
      "stateMutability": "view",
      "type": "function"
    },
    {
      "inputs": [
        {
          "internalType": "address",
          "name": "to",
          "type": "address"
        },
        {
          "internalType": "uint256",
          "name": "amount",
          "type": "uint256"
        }
      ],
      "name": "mint",
      "outputs": [],
      "stateMutability": "nonpayable",
      "type": "function"
    },
    {
      "inputs": [],
      "name": "owner",
      "outputs": [
        {
          "internalType": "address",
          "name": "",
          "type": "address"
        }
      ],
      "stateMutability": "view",
      "type": "function"
    },
    {
      "inputs": [],
      "name": "requestToken",
      "outputs": [],
      "stateMutability": "nonpayable",
      "type": "function"
    },
    {
      "inputs": [
        {
          "internalType": "address",
          "name": "_to",
          "type": "address"
        },
        {
          "internalType": "uint256",
          "name": "_amount",
          "type": "uint256"
        }
      ],
      "name": "transfer",
      "outputs": [
        {
          "internalType": "bool",
          "name": "",
          "type": "bool"
        }
      ],
      "stateMutability": "nonpayable",
      "type": "function"
    },
    {
      "inputs": [
        {
          "internalType": "address",
          "name": "_from",
          "type": "address"
        },
        {
          "internalType": "address",
          "name": "_to",
          "type": "address"
        },
        {
          "internalType": "uint256",
          "name": "_amount",
          "type": "uint256"
        }
      ],
      "name": "transferFrom",
      "outputs": [
        {
          "internalType": "bool",
          "name": "",
          "type": "bool"
        }
      ],
      "stateMutability": "nonpayable",
      "type": "function"
    }
  ],
  "bytecode": "0x60c06040526005608090815264506c75746f60d81b60a0526001906100249082610127565b5060408051808201909152600381526214131560ea1b602082015260029061004c9082610127565b5060126003556a084595161401484a000000600455671bc16d674ec80000600655348015610078575f5ffd5b505f80546001600160a01b031916331790556101e1565b634e487b7160e01b5f52604160045260245ffd5b600181811c908216806100b757607f821691505b6020821081036100d557634e487b7160e01b5f52602260045260245ffd5b50919050565b601f82111561012257805f5260205f20601f840160051c810160208510156101005750805b601f840160051c820191505b8181101561011f575f815560010161010c565b50505b505050565b81516001600160401b038111156101405761014061008f565b6101548161014e84546100a3565b846100db565b6020601f821160018114610186575f831561016f5750848201515b5f19600385901b1c1916600184901b17845561011f565b5f84815260208120601f198516915b828110156101b55787850151825560209485019460019092019101610195565b50848210156101d257868401515f19600387901b60f8161c191681555b50505050600190811b01905550565b6107b3806101ee5f395ff3fe608060405234801561000f575f5ffd5b50600436106100e5575f3560e01c80634d7ec628116100885780639c281430116100635780639c281430146101de578063a44b47f7146101e7578063a9059cbb146101f0578063b6d7855a14610203575f5ffd5b80634d7ec6281461018d57806370a08231146101955780638da5cb5b146101b4575f5ffd5b8063313ce567116100c3578063313ce5671461013957806332cb6b0c14610150578063394f61811461015957806340c10f1914610178575f5ffd5b8063095ea7b3146100e957806323b872dd146101115780633045aaf314610124575b5f5ffd5b6100fc6100f7366004610654565b61020b565b60405190151581526020015b60405180910390f35b6100fc61011f36600461067c565b61029f565b61012c6103c2565b60405161010891906106b6565b61014260035481565b604051908152602001610108565b61014260045481565b6101426101673660046106eb565b60096020525f908152604090205481565b61018b610186366004610654565b61044e565b005b61018b610486565b6101426101a33660046106eb565b60076020525f908152604090205481565b5f546101c6906001600160a01b031681565b6040516001600160a01b039091168152602001610108565b61014260065481565b61014260055481565b6100fc6101fe366004610654565b6104e4565b61012c6105a9565b335f9081526007602052604081205482111561023a57604051632858f9ab60e11b815260040160405180910390fd5b335f8181526008602090815260408083206001600160a01b03881680855290835292819020869055518581529192917f8c5be1e5ebec7d5bd14f71427d1e84f3dd0314c0f7b2291e5b200ac8c7c3b92591015b60405180910390a35060015b92915050565b6001600160a01b0383165f908152600760205260408120548211156102d757604051632858f9ab60e11b815260040160405180910390fd5b6001600160a01b0384165f90815260086020908152604080832033845290915290205482111561031a57604051634ae18d2b60e11b815260040160405180910390fd5b6001600160a01b0384165f9081526007602052604090205461033d90839061071f565b6001600160a01b0385165f90815260076020526040902081905561036290839061071f565b6001600160a01b038086165f9081526008602090815260408083203384528252808320949094559186168152600790915220546103a0908390610732565b6001600160a01b0384165f908152600760205260409020555060019392505050565b600280546103cf90610745565b80601f01602080910402602001604051908101604052809291908181526020018280546103fb90610745565b80156104465780601f1061041d57610100808354040283529160200191610446565b820191905f5260205f20905b81548152906001019060200180831161042957829003601f168201915b505050505081565b5f546001600160a01b03163314610478576040516338ebc58960e11b815260040160405180910390fd5b61048282826105b6565b5050565b335f908152600960205260409020546104a29062015180610732565b4210156104c557604051600162ff403560e01b0319815260040160405180910390fd5b6104d1336006546105b6565b335f908152600960205260409020429055565b335f9081526007602052604081205482111561051357604051632858f9ab60e11b815260040160405180910390fd5b335f9081526007602052604090205461052d90839061071f565b335f90815260076020526040808220929092556001600160a01b03851681522054610559908390610732565b6001600160a01b0384165f818152600760205260409081902092909255905133907fddf252ad1be2c89b69c2b068fc378daa952ba7f163c4a11628f55a4df523b3ef9061028d9086815260200190565b600180546103cf90610745565b600454816005546105c79190610732565b11156105e65760405163ed0f594f60e01b815260040160405180910390fd5b806005546105f49190610732565b6005556001600160a01b0382165f9081526007602052604090205461061a908290610732565b6001600160a01b039092165f9081526007602052604090209190915550565b80356001600160a01b038116811461064f575f5ffd5b919050565b5f5f60408385031215610665575f5ffd5b61066e83610639565b946020939093013593505050565b5f5f5f6060848603121561068e575f5ffd5b61069784610639565b92506106a560208501610639565b929592945050506040919091013590565b602081525f82518060208401528060208501604085015e5f604082850101526040601f19601f83011684010191505092915050565b5f602082840312156106fb575f5ffd5b61070482610639565b9392505050565b634e487b7160e01b5f52601160045260245ffd5b818103818111156102995761029961070b565b808201808211156102995761029961070b565b600181811c9082168061075957607f821691505b60208210810361077757634e487b7160e01b5f52602260045260245ffd5b5091905056fea26469706673582212201c6891c3b7b9052f92b6764d32311f3e4fa7671e544c479a92f81ba8b1ab573364736f6c634300081c0033",
  "linkReferences": {},
  "deployedLinkReferences": {},
  "immutableReferences": {},
  "inputSourceName": "project/contracts/FaucetToken.sol",
  "buildInfoId": "solc-0_8_28-4cb1d981ab1395b58f4c8b2d7c50e3c0b8e2ab26"
}