{
  "_format": "hh3-artifact-1",
  "contractName": "MyNFT",
  "sourceName": "contracts/nft.sol",
  "abi": [
    {
      "inputs": [
        {
          "internalType": "address",
          "name": "initialOwner",
          "type": "address"
        }
      ],
      "stateMutability": "nonpayable",
      "type": "constructor"
    },
    {
      "inputs": [
        {
          "internalType": "address",
          "name": "sender",
          "type": "address"
        },
        {
          "internalType": "uint256",
          "name": "tokenId",
          "type": "uint256"
        },
        {
          "internalType": "address",
          "name": "owner",
          "type": "address"
        }
      ],
      "name": "ERC721IncorrectOwner",
      "type": "error"
    },
    {
      "inputs": [
        {
          "internalType": "address",
          "name": "operator",
          "type": "address"
        },
        {
          "internalType": "uint256",
          "name": "tokenId",
          "type": "uint256"
        }
      ],
      "name": "ERC721InsufficientApproval",
      "type": "error"
    },
    {
      "inputs": [
        {
          "internalType": "address",
          "name": "approver",
          "type": "address"
        }
      ],
      "name": "ERC721InvalidApprover",
      "type": "error"
    },
    {
      "inputs": [
        {
          "internalType": "address",
          "name": "operator",
          "type": "address"
        }
      ],
      "name": "ERC721InvalidOperator",
      "type": "error"
    },
    {
      "inputs": [
        {
          "internalType": "address",
          "name": "owner",
          "type": "address"
        }
      ],
      "name": "ERC721InvalidOwner",
      "type": "error"
    },
    {
      "inputs": [
        {
          "internalType": "address",
          "name": "receiver",
          "type": "address"
        }
      ],
      "name": "ERC721InvalidReceiver",
      "type": "error"
    },
    {
      "inputs": [
        {
          "internalType": "address",
          "name": "sender",
          "type": "address"
        }
      ],
      "name": "ERC721InvalidSender",
      "type": "error"
    },
    {
      "inputs": [
        {
          "internalType": "uint256",
          "name": "tokenId",
          "type": "uint256"
        }
      ],
      "name": "ERC721NonexistentToken",
      "type": "error"
    },
    {
      "inputs": [
        {
          "internalType": "address",
          "name": "owner",
          "type": "address"
        }
      ],
      "name": "OwnableInvalidOwner",
      "type": "error"
    },
    {
      "inputs": [
        {
          "internalType": "address",
          "name": "account",
          "type": "address"
        }
      ],
      "name": "OwnableUnauthorizedAccount",
      "type": "error"
    },
    {
      "anonymous": false,
      "inputs": [
        {
          "indexed": true,
          "internalType": "address",
          "name": "owner",
          "type": "address"
        },
        {
          "indexed": true,
          "internalType": "address",
          "name": "approved",
          "type": "address"
        },
        {
          "indexed": true,
          "internalType": "uint256",
          "name": "tokenId",
          "type": "uint256"
        }
      ],
      "name": "Approval",
      "type": "event"
    },
    {
      "anonymous": false,
      "inputs": [
        {
          "indexed": true,
          "internalType": "address",
          "name": "owner",
          "type": "address"
        },
        {
          "indexed": true,
          "internalType": "address",
          "name": "operator",
          "type": "address"
        },
        {
          "indexed": false,
          "internalType": "bool",
          "name": "approved",
          "type": "bool"
        }
      ],
      "name": "ApprovalForAll",
      "type": "event"
    },
    {
      "anonymous": false,
      "inputs": [
        {
          "indexed": false,
          "internalType": "uint256",
          "name": "_fromTokenId",
          "type": "uint256"
        },
        {
          "indexed": false,
          "internalType": "uint256",
          "name": "_toTokenId",
          "type": "uint256"
        }
      ],
      "name": "BatchMetadataUpdate",
      "type": "event"
    },
    {
      "anonymous": false,
      "inputs": [
        {
          "indexed": false,
          "internalType": "uint256",
          "name": "_tokenId",
          "type": "uint256"
        }
      ],
      "name": "MetadataUpdate",
      "type": "event"
    },
    {
      "anonymous": false,
      "inputs": [
        {
          "indexed": true,
          "internalType": "address",
          "name": "previousOwner",
          "type": "address"
        },
        {
          "indexed": true,
          "internalType": "address",
          "name": "newOwner",
          "type": "address"
        }
      ],
      "name": "OwnershipTransferred",
      "type": "event"
    },
    {
      "anonymous": false,
      "inputs": [
        {
          "indexed": true,
          "internalType": "address",
          "name": "from",
          "type": "address"
        },
        {
          "indexed": true,
          "internalType": "address",
          "name": "to",
          "type": "address"
        },
        {
          "indexed": true,
          "internalType": "uint256",
          "name": "tokenId",
          "type": "uint256"
        }
      ],
      "name": "Transfer",
      "type": "event"
    },
    {
      "inputs": [
        {
          "internalType": "address",
          "name": "to",
          "type": "address"
        },
        {
          "internalType": "uint256",
          "name": "tokenId",
          "type": "uint256"
        }
      ],
      "name": "approve",
      "outputs": [],
      "stateMutability": "nonpayable",
      "type": "function"
    },
    {
      "inputs": [
        {
          "internalType": "address",
          "name": "owner",
          "type": "address"
        }
      ],
      "name": "balanceOf",
      "outputs": [
        {
          "internalType": "uint256",
          "name": "",
          "type": "uint256"
        }
      ],
      "stateMutability": "view",
      "type": "function"
    },
    {
      "inputs": [
        {
          "internalType": "uint256",
          "name": "tokenId",
          "type": "uint256"
        }
      ],
      "name": "getApproved",
      "outputs": [
        {
          "internalType": "address",
          "name": "",
          "type": "address"
        }
      ],
      "stateMutability": "view",
      "type": "function"
    },
    {
      "inputs": [
        {
          "internalType": "address",
          "name": "owner",
          "type": "address"
        },
        {
          "internalType": "address",
          "name": "operator",
          "type": "address"
        }
      ],
      "name": "isApprovedForAll",
      "outputs": [
        {
          "internalType": "bool",
          "name": "",
          "type": "bool"
        }
      ],
      "stateMutability": "view",
      "type": "function"
    },
    {
      "inputs": [
        {
          "internalType": "address",
          "name": "_to",
          "type": "address"
        },
        {
          "internalType": "uint256",
          "name": "nftId",
          "type": "uint256"
        },
        {
          "internalType": "string",
          "name": "tokenURI",
          "type": "string"
        }
      ],
      "name": "mintNFT",
      "outputs": [],
      "stateMutability": "nonpayable",
      "type": "function"
    },
    {
      "inputs": [],
      "name": "name",
      "outputs": [
        {
          "internalType": "string",
          "name": "",
          "type": "string"
        }
      ],
      "stateMutability": "view",
      "type": "function"
    },
    {
      "inputs": [],
      "name": "owner",
      "outputs": [
        {
          "internalType": "address",
          "name": "",
          "type": "address"
        }
      ],
      "stateMutability": "view",
      "type": "function"
    },
    {
      "inputs": [
        {
          "internalType": "uint256",
          "name": "tokenId",
          "type": "uint256"
        }
      ],
      "name": "ownerOf",
      "outputs": [
        {
          "internalType": "address",
          "name": "",
          "type": "address"
        }
      ],
      "stateMutability": "view",
      "type": "function"
    },
    {
      "inputs": [],
      "name": "renounceOwnership",
      "outputs": [],
      "stateMutability": "nonpayable",
      "type": "function"
    },
    {
      "inputs": [
        {
          "internalType": "address",
          "name": "from",
          "type": "address"
        },
        {
          "internalType": "address",
          "name": "to",
          "type": "address"
        },
        {
          "internalType": "uint256",
          "name": "tokenId",
          "type": "uint256"
        }
      ],
      "name": "safeTransferFrom",
      "outputs": [],
      "stateMutability": "nonpayable",
      "type": "function"
    },
    {
      "inputs": [
        {
          "internalType": "address",
          "name": "from",
          "type": "address"
        },
        {
          "internalType": "address",
          "name": "to",
          "type": "address"
        },
        {
          "internalType": "uint256",
          "name": "tokenId",
          "type": "uint256"
        },
        {
          "internalType": "bytes",
          "name": "data",
          "type": "bytes"
        }
      ],
      "name": "safeTransferFrom",
      "outputs": [],
      "stateMutability": "nonpayable",
      "type": "function"
    },
    {
      "inputs": [
        {
          "internalType": "address",
          "name": "operator",
          "type": "address"
        },
        {
          "internalType": "bool",
          "name": "approved",
          "type": "bool"
        }
      ],
      "name": "setApprovalForAll",
      "outputs": [],
      "stateMutability": "nonpayable",
      "type": "function"
    },
    {
      "inputs": [
        {
          "internalType": "bytes4",
          "name": "interfaceId",
          "type": "bytes4"
        }
      ],
      "name": "supportsInterface",
      "outputs": [
        {
          "internalType": "bool",
          "name": "",
          "type": "bool"
        }
      ],
      "stateMutability": "view",
      "type": "function"
    },
    {
      "inputs": [],
      "name": "symbol",
      "outputs": [
        {
          "internalType": "string",
          "name": "",
          "type": "string"
        }
      ],
      "stateMutability": "view",
      "type": "function"
    },
    {
      "inputs": [],
      "name": "tokenCount",
      "outputs": [
        {
          "internalType": "uint256",
          "name": "",
          "type": "uint256"
        }
      ],
      "stateMutability": "view",
      "type": "function"
    },
    {
      "inputs": [
        {
          "internalType": "uint256",
          "name": "tokenId",
          "type": "uint256"
        }
      ],
      "name": "tokenURI",
      "outputs": [
        {
          "internalType": "string",
          "name": "",
          "type": "string"
        }
      ],
      "stateMutability": "view",
      "type": "function"
    },
    {
      "inputs": [
        {
          "internalType": "address",
          "name": "from",
          "type": "address"
        },
        {
          "internalType": "address",
          "name": "to",
          "type": "address"
        },
        {
          "internalType": "uint256",
          "name": "tokenId",
          "type": "uint256"
        }
      ],
      "name": "transferFrom",
      "outputs": [],
      "stateMutability": "nonpayable",
      "type": "function"
    },
    {
      "inputs": [
        {
          "internalType": "address",
          "name": "newOwner",
          "type": "address"
        }
      ],
      "name": "transferOwnership",
      "outputs": [],
      "stateMutability": "nonpayable",
      "type": "function"
    }
  ],
  "bytecode": "0x608060405234801561000f575f5ffd5b5060405161162438038061162483398101604081905261002e91610119565b8060405180604001604052806005815260200164135e53919560da1b8152506040518060400160405280600381526020016213519560ea1b815250815f908161007791906101de565b50600161008482826101de565b5050506001600160a01b0381166100b457604051631e4fbdf760e01b81525f600482015260240160405180910390fd5b6100bd816100c8565b50505f600855610298565b600780546001600160a01b038381166001600160a01b0319831681179093556040519116919082907f8be0079c531659141344cd1fd0a4f28419497f9722a3daafe3b4186f6b6457e0905f90a35050565b5f60208284031215610129575f5ffd5b81516001600160a01b038116811461013f575f5ffd5b9392505050565b634e487b7160e01b5f52604160045260245ffd5b600181811c9082168061016e57607f821691505b60208210810361018c57634e487b7160e01b5f52602260045260245ffd5b50919050565b601f8211156101d957805f5260205f20601f840160051c810160208510156101b75750805b601f840160051c820191505b818110156101d6575f81556001016101c3565b50505b505050565b81516001600160401b038111156101f7576101f7610146565b61020b81610205845461015a565b84610192565b6020601f82116001811461023d575f83156102265750848201515b5f19600385901b1c1916600184901b1784556101d6565b5f84815260208120601f198516915b8281101561026c578785015182556020948501946001909201910161024c565b508482101561028957868401515f19600387901b60f8161c191681555b50505050600190811b01905550565b61137f806102a55f395ff3fe608060405234801561000f575f5ffd5b5060043610610111575f3560e01c8063715018a61161009e578063a22cb4651161006e578063a22cb46514610229578063b88d4fde1461023c578063c87b56dd1461024f578063e985e9c514610262578063f2fde38b14610275575f5ffd5b8063715018a6146101ff5780638da5cb5b1461020757806395d89b41146102185780639f181b5e14610220575f5ffd5b80631e576912116100e45780631e5769121461019257806323b872dd146101a557806342842e0e146101b85780636352211e146101cb57806370a08231146101de575f5ffd5b806301ffc9a71461011557806306fdde031461013d578063081812fc14610152578063095ea7b31461017d575b5f5ffd5b610128610123366004610e92565b610288565b60405190151581526020015b60405180910390f35b6101456102b2565b6040516101349190610edb565b610165610160366004610eed565b610341565b6040516001600160a01b039091168152602001610134565b61019061018b366004610f1f565b610368565b005b6101906101a0366004610fd2565b610377565b6101906101b3366004611038565b6103ac565b6101906101c6366004611038565b61043a565b6101656101d9366004610eed565b610459565b6101f16101ec366004611072565b610463565b604051908152602001610134565b6101906104a8565b6007546001600160a01b0316610165565b6101456104bb565b6101f160085481565b61019061023736600461108b565b6104ca565b61019061024a3660046110c4565b6104d5565b61014561025d366004610eed565b6104ed565b61012861027036600461113b565b6105f8565b610190610283366004611072565b610625565b5f6001600160e01b03198216632483248360e11b14806102ac57506102ac82610662565b92915050565b60605f80546102c09061116c565b80601f01602080910402602001604051908101604052809291908181526020018280546102ec9061116c565b80156103375780601f1061030e57610100808354040283529160200191610337565b820191905f5260205f20905b81548152906001019060200180831161031a57829003601f168201915b5050505050905090565b5f61034b826106b1565b505f828152600460205260409020546001600160a01b03166102ac565b6103738282336106e9565b5050565b61037f6106f6565b6103898383610723565b6103938282610784565b60088054905f6103a2836111a4565b9190505550505050565b6001600160a01b0382166103da57604051633250574960e11b81525f60048201526024015b60405180910390fd5b5f6103e68383336107d3565b9050836001600160a01b0316816001600160a01b031614610434576040516364283d7b60e01b81526001600160a01b03808616600483015260248201849052821660448201526064016103d1565b50505050565b61045483838360405180602001604052805f8152506104d5565b505050565b5f6102ac826106b1565b5f6001600160a01b03821661048d576040516322718ad960e21b81525f60048201526024016103d1565b506001600160a01b03165f9081526003602052604090205490565b6104b06106f6565b6104b95f6108c5565b565b6060600180546102c09061116c565b610373338383610916565b6104e08484846103ac565b61043433858585856109b4565b60606104f8826106b1565b505f82815260066020526040812080546105119061116c565b80601f016020809104026020016040519081016040528092919081815260200182805461053d9061116c565b80156105885780601f1061055f57610100808354040283529160200191610588565b820191905f5260205f20905b81548152906001019060200180831161056b57829003601f168201915b505050505090505f6105a460408051602081019091525f815290565b905080515f036105b5575092915050565b8151156105e75780826040516020016105cf9291906111df565b60405160208183030381529060405292505050919050565b6105f084610adc565b949350505050565b6001600160a01b039182165f90815260056020908152604080832093909416825291909152205460ff1690565b61062d6106f6565b6001600160a01b03811661065657604051631e4fbdf760e01b81525f60048201526024016103d1565b61065f816108c5565b50565b5f6001600160e01b031982166380ac58cd60e01b148061069257506001600160e01b03198216635b5e139f60e01b145b806102ac57506301ffc9a760e01b6001600160e01b03198316146102ac565b5f818152600260205260408120546001600160a01b0316806102ac57604051637e27328960e01b8152600481018490526024016103d1565b6104548383836001610b4d565b6007546001600160a01b031633146104b95760405163118cdaa760e01b81523360048201526024016103d1565b6001600160a01b03821661074c57604051633250574960e11b81525f60048201526024016103d1565b5f61075883835f6107d3565b90506001600160a01b03811615610454576040516339e3563760e11b81525f60048201526024016103d1565b5f82815260066020526040902061079b8282611237565b506040518281527ff8e1a15aba9398e019f0b49df1a4fde98ee17ae345cb5f6b5e2c27f5033e8ce79060200160405180910390a15050565b5f828152600260205260408120546001600160a01b03908116908316156107ff576107ff818486610c51565b6001600160a01b038116156108395761081a5f855f5f610b4d565b6001600160a01b0381165f90815260036020526040902080545f190190555b6001600160a01b03851615610867576001600160a01b0385165f908152600360205260409020805460010190555b5f8481526002602052604080822080546001600160a01b0319166001600160a01b0389811691821790925591518793918516917fddf252ad1be2c89b69c2b068fc378daa952ba7f163c4a11628f55a4df523b3ef91a4949350505050565b600780546001600160a01b038381166001600160a01b0319831681179093556040519116919082907f8be0079c531659141344cd1fd0a4f28419497f9722a3daafe3b4186f6b6457e0905f90a35050565b6001600160a01b03821661094857604051630b61174360e31b81526001600160a01b03831660048201526024016103d1565b6001600160a01b038381165f81815260056020908152604080832094871680845294825291829020805460ff191686151590811790915591519182527f17307eab39ab6107e8899845ad3d59bd9653f200f220920489ca2b5937696c31910160405180910390a3505050565b6001600160a01b0383163b15610ad557604051630a85bd0160e11b81526001600160a01b0384169063150b7a02906109f69088908890879087906004016112f2565b6020604051808303815f875af1925050508015610a30575060408051601f3d908101601f19168201909252610a2d9181019061132e565b60015b610a97573d808015610a5d576040519150601f19603f3d011682016040523d82523d5f602084013e610a62565b606091505b5080515f03610a8f57604051633250574960e11b81526001600160a01b03851660048201526024016103d1565b805160208201fd5b6001600160e01b03198116630a85bd0160e11b14610ad357604051633250574960e11b81526001600160a01b03851660048201526024016103d1565b505b5050505050565b6060610ae7826106b1565b505f610afd60408051602081019091525f815290565b90505f815111610b1b5760405180602001604052805f815250610b46565b80610b2584610cb5565b604051602001610b369291906111df565b6040516020818303038152906040525b9392505050565b8080610b6157506001600160a01b03821615155b15610c22575f610b70846106b1565b90506001600160a01b03831615801590610b9c5750826001600160a01b0316816001600160a01b031614155b8015610baf5750610bad81846105f8565b155b15610bd85760405163a9fbf51f60e01b81526001600160a01b03841660048201526024016103d1565b8115610c205783856001600160a01b0316826001600160a01b03167f8c5be1e5ebec7d5bd14f71427d1e84f3dd0314c0f7b2291e5b200ac8c7c3b92560405160405180910390a45b505b50505f90815260046020526040902080546001600160a01b0319166001600160a01b0392909216919091179055565b610c5c838383610d45565b610454576001600160a01b038316610c8a57604051637e27328960e01b8152600481018290526024016103d1565b60405163177e802f60e01b81526001600160a01b0383166004820152602481018290526044016103d1565b60605f610cc183610da6565b60010190505f8167ffffffffffffffff811115610ce057610ce0610f47565b6040519080825280601f01601f191660200182016040528015610d0a576020820181803683370190505b5090508181016020015b5f19016f181899199a1a9b1b9c1cb0b131b232b360811b600a86061a8153600a8504945084610d1457509392505050565b5f6001600160a01b038316158015906105f05750826001600160a01b0316846001600160a01b03161480610d7e5750610d7e84846105f8565b806105f05750505f908152600460205260409020546001600160a01b03908116911614919050565b5f8072184f03e93ff9f4daa797ed6e38ed64bf6a1f0160401b8310610de45772184f03e93ff9f4daa797ed6e38ed64bf6a1f0160401b830492506040015b6d04ee2d6d415b85acef81000000008310610e10576d04ee2d6d415b85acef8100000000830492506020015b662386f26fc100008310610e2e57662386f26fc10000830492506010015b6305f5e1008310610e46576305f5e100830492506008015b6127108310610e5a57612710830492506004015b60648310610e6c576064830492506002015b600a83106102ac5760010192915050565b6001600160e01b03198116811461065f575f5ffd5b5f60208284031215610ea2575f5ffd5b8135610b4681610e7d565b5f81518084528060208401602086015e5f602082860101526020601f19601f83011685010191505092915050565b602081525f610b466020830184610ead565b5f60208284031215610efd575f5ffd5b5035919050565b80356001600160a01b0381168114610f1a575f5ffd5b919050565b5f5f60408385031215610f30575f5ffd5b610f3983610f04565b946020939093013593505050565b634e487b7160e01b5f52604160045260245ffd5b5f5f67ffffffffffffffff841115610f7557610f75610f47565b50604051601f19601f85018116603f0116810181811067ffffffffffffffff82111715610fa457610fa4610f47565b604052838152905080828401851015610fbb575f5ffd5b838360208301375f60208583010152509392505050565b5f5f5f60608486031215610fe4575f5ffd5b610fed84610f04565b925060208401359150604084013567ffffffffffffffff81111561100f575f5ffd5b8401601f8101861361101f575f5ffd5b61102e86823560208401610f5b565b9150509250925092565b5f5f5f6060848603121561104a575f5ffd5b61105384610f04565b925061106160208501610f04565b929592945050506040919091013590565b5f60208284031215611082575f5ffd5b610b4682610f04565b5f5f6040838503121561109c575f5ffd5b6110a583610f04565b9150602083013580151581146110b9575f5ffd5b809150509250929050565b5f5f5f5f608085870312156110d7575f5ffd5b6110e085610f04565b93506110ee60208601610f04565b925060408501359150606085013567ffffffffffffffff811115611110575f5ffd5b8501601f81018713611120575f5ffd5b61112f87823560208401610f5b565b91505092959194509250565b5f5f6040838503121561114c575f5ffd5b61115583610f04565b915061116360208401610f04565b90509250929050565b600181811c9082168061118057607f821691505b60208210810361119e57634e487b7160e01b5f52602260045260245ffd5b50919050565b5f600182016111c157634e487b7160e01b5f52601160045260245ffd5b5060010190565b5f81518060208401855e5f93019283525090919050565b5f6105f06111ed83866111c8565b846111c8565b601f82111561045457805f5260205f20601f840160051c810160208510156112185750805b601f840160051c820191505b81811015610ad5575f8155600101611224565b815167ffffffffffffffff81111561125157611251610f47565b6112658161125f845461116c565b846111f3565b6020601f821160018114611297575f83156112805750848201515b5f19600385901b1c1916600184901b178455610ad5565b5f84815260208120601f198516915b828110156112c657878501518255602094850194600190920191016112a6565b50848210156112e357868401515f19600387901b60f8161c191681555b50505050600190811b01905550565b6001600160a01b03858116825284166020820152604081018390526080606082018190525f9061132490830184610ead565b9695505050505050565b5f6020828403121561133e575f5ffd5b8151610b4681610e7d56fea264697066735822122014aded0c5e2ad2ba2d8bc727043f57dff31859a85f0c49315c14f32a11dd682064736f6c634300081c0033",
  "linkReferences": {},
  "deployedLinkReferences": {},
  "immutableReferences": {},
  "inputSourceName": "project/contracts/nft.sol",
  "buildInfoId": "solc-0_8_28-faa892195ee220f41aaabf76682a73278caf8a2d"
}